:020000040800F2
:100000005807002089010008E3150008A51300081F
:10001000E11500088F020008A31900080000000085
:10002000000000000000000000000000E7150008CC
:100030009102000800000000E5150008E91500081D
:10004000A3010008A3010008A3010008A301000800
:10005000A3010008A3010008A3010008A3010008F0
:10006000A3010008A3010008A3010008A3010008E0
:10007000A3010008A3010008A3010008A3010008D0
:10008000A3010008A3010008A3010008A3010008C0
:10009000A3010008A3010008A3010008A3010008B0
:1000A000A3010008A3010008A3010008A3010008A0
:1000B0004D160008A3010008A3010008A3010008D1
:1000C000A3010008A3010008A3010008A301000880
:1000D000A3010008A3010008A3010008A301000870
:1000E000A3010008A3010008A301000800F002F822
:1000F00000F03AF80AA090E8000C82448344AAF188
:100100000107DA4501D100F02FF8AFF2090EBAE885
:100110000F0013F0010F18BFFB1A43F0010318473B
:10012000AC1E0000CC1E0000103A24BF78C878C175
:10013000FAD8520724BF30C830C144BF04680C60ED
:10014000704700000023002400250026103A28BF35
:1001500078C1FBD8520728BF30C148BF0B60704739
:100160001FB51FBD10B510BD00F058F81146FFF7C0
:10017000F7FF01F027FC00F076F803B4FFF7F2FF79
:1001800003BC00F07DF8000009488047094800479B
:10019000FEE7FEE7FEE7FEE7FEE7FEE7FEE7FEE737
:1001A000FEE7FEE704480549054A064B7047000094
:1001B0004B160008ED0000085801002058070020E9
:1001C00058030020580300204FF0000200B51346EA
:1001D00094469646203922BFA0E80C50A0E80C5067
:1001E000B1F12001BFF4F7AF090728BFA0E80C5018
:1001F00048BF0CC05DF804EB890028BF40F8042B11
:1002000008BF704748BF20F8022B11F0804F18BF7D
:1002100000F8012B7047704770477047754600F033
:100220002BF8AE4605006946534620F00700854688
:1002300018B020B5FFF7B6FFBDE820404FF000062C
:100240004FF000074FF000084FF0000B21F00701BE
:10025000AC46ACE8C009ACE8C009ACE8C009ACE801
:10026000C0098D46704710B50446AFF300802046A4
:10027000BDE81040FFF781BF00487047F400002040
:1002800001491820ABBEFEE7260002007047FEE7DA
:10029000704700002DE9F84FDFF8B891002409F10C
:1002A000040A0AF1040B23460F270BF1040EC9E0E0
:1002B0000125A5402A40AA427DD1674ED1F804C04D
:1002C000ACEB0608B44532D014DCBCF1030F3AD0D5
:1002D00009DCBCF1000F2AD0BCF1010F1CD0BCF12D
:1002E000020F31D11DE0BCF1110F17D0BCF1120F7C
:1002F0002AD119E0B8F5881F19D006DCB8F5803F7F
:1003000015D0B8F5801F1FD111E0B8F5001F0ED031
:10031000B8F5041F18D10AE0CB6815E0CB681B1DA7
:1003200012E0CB6808330FE0CB680C330CE08B682D
:100330002BB1012B4FF0080303D0456104E00423E7
:1003400002E0056100E00023FF2A01D8064601E033
:1003500000F104064FEA840501D9A5F12005D6F87D
:10036000008007FA05FC28EA0C0803FA05F548EABC
:100370000508C6F800804D68ED0062D5374DAE69BE
:1003800046F00106AE61AD6924F0030605F00105F3
:100390000095334D06EB050CDCF80850A607360F28
:1003A00007FA06F825EA0805DFF8B880404503D1CA
:1003B0004FF0000817E044E0DFF8AC80404502D180
:1003C0004FF001080FE0DFF8A480404502D14FF064
:1003D000020808E0DFF89880404502D14FF003089A
:1003E00001E04FF0040808FA06F848EA0508CCF8DE
:1003F00008804D68D9F80060ED034D4601D51643DD
:1004000000E096432E604D68DAF80060AD03554673
:1004100001D5164300E096432E604D68DBF800607E
:10042000ED025D4601D5164300E096432E604D680F
:10043000DEF80060AD02754601D5164300E0964334
:100440002E60641C0D682A46E5407FF431AFBDE89C
:10045000F88F00000004014000001110001002405D
:100460000000014000080140000C01400010014064
:10047000001401400AB1016170470904FBE7000064
:1004800001488068704700000C0000200248816825
:1004900002781144816070470C000020074810B5B5
:1004A000016841F010010160032000F075F80F2091
:1004B00000F006F800F024F8002010BD00200240F3
:1004C00070B50D4D04464FF47A712878B1FBF0F009
:1004D0000A490968B1FBF0F000F0CCFA48B9102CD9
:1004E00007D200222146501E00F036F800206C6032
:1004F00070BD012070BD00000C000020180000201D
:100500000C4808B5816941F001018161816901F000
:1005100001010091C16941F08051C161C06900F0E1
:10052000805000900448416821F0E06141F0007182
:10053000416008BD0010024000000140002809DBB6
:1005400000F01F02012191404009800000F1E020ED
:10055000C0F8001170470000F0B40E4B1B680C4649
:10056000C3F30223C3F10705042D00D90425191D87
:10057000072901D2002300E0DB1E012606FA05F15F
:10058000491E214099409E40761E16403143F0BCE2
:1005900001F008BA0CED00E0064900F00702086817
:1005A0004FF6FF03184040EA0220034A1043086058
:1005B000704700000CED00E00000FA052DE9F0475F
:1005C0000F46050061D0434E306800F00700B84286
:1005D00009D2306820F0070038433060306800F0FE
:1005E0000700B84251D128683B4C810712D540071B
:1005F00003D5606840F4E06060602878000703D5A8
:10060000606840F4605060606068A96820F0F000A5
:10061000084360602878C00728D06868012810D097
:100620002168022810D0890700292EDA616821F09C
:10063000030101436160FFF723FF804641F28839DF
:100640000DE021688903EFE78901EDE7FFF718FF67
:10065000A0EB0801494502D90320BDE8F087606896
:10066000696800F00C00B0EB810FEFD1306800F04A
:100670000700B8420BD9306820F0070038433060DB
:10068000306800F00700B84201D00120E5E7287883
:10069000400705D56068E96820F4E06008436060C1
:1006A0002878000706D56068296920F4605040EA80
:1006B000C100606000F018F86168084AC1F30311D6
:1006C000515CC8400649086006480068FFF7F8FE1C
:1006D0000020C2E70020024000100240BA1F0008BC
:1006E000180000201000002012A185B00FC98DE86D
:1006F0000F0014A0144A006804905168134801F0D8
:100700000C03042B10D0082B0ED1C1F38343C90373
:100710001DF803000AD5516804AAC1F34041515C99
:100720000A4A5043B0FBF1F005B07047084948430E
:10073000FAE7000002030405060708090A0B0C0D7E
:100740000E0F1010010200000010024000127A008B
:1007500000093D002DE9F84F040070D02078C04D0D
:10076000C00749D06868C0F38100012807D06868D5
:10077000C0F38100022809D16868C00306D5286843
:10078000800339D560680028E7D035E06068B0F5AF
:10079000803F0BD010B1B0F5A02F11D0286820F405
:1007A00080302860286820F4802002E0286840F427
:1007B00080302860606890B1FFF762FE06460AE06C
:1007C000286840F480202860F0E700BFFFF758FE5B
:1007D000801B642873D828688003F7D50CE0FFF7E6
:1007E0004FFE064605E000BFFFF74AFE801B642867
:1007F000F0D828688003F7D420789A4E80074FF00D
:1008000001094FF0000839D5686810F00C0F07D0C7
:100810006868C0F38100022809D16868C00306D463
:100820002868800714D52069012808D110E02069C4
:10083000B0B1C6F80090FFF723FE074605E00AE1D5
:10084000FFF71EFEC01B0228C4D828688007F7D512
:100850002868616920F0F80040EAC10028600DE0D6
:10086000C6F80080FFF70CFE074604E0FFF708FE1D
:10087000C01B022823D828688007F7D420780007F7
:100880002CD57948A169D9B1C0F80090FFF7F8FDDF
:10089000074604E0FFF7F4FDC01B02280FD8686A82
:1008A0008007F7D571484FF4FA510068B0FBF1F0BA
:1008B000009000BF0098411E0091FAD20EE080E047
:1008C000C0F80080FFF7DCFD074604E0FFF7D8FD25
:1008D000C01B022875D8686A8007F7D420784007C3
:1008E00060D5E8690027C00008D4E86940F080506E
:1008F000E861E869012700F0805000905C480168D9
:10090000C90513D40168834641F480710160FFF783
:10091000B7FD824606E000BFFFF7B2FDA0EB0A007C
:1009200064284ED8DBF80000C005F5D5E068012842
:100930000AD008B1052813D0286A20F001002862E7
:10094000286A20F0040002E0286A40F001002862D2
:10095000E06841F2883B98B1FFF792FD82460BE0D8
:10096000286A40F004002862EEE700BFFFF788FD28
:10097000A0EB0A0159455AD8286A8007F6D50CE041
:10098000FFF77EFD824605E0FFF77AFDA0EB0A0146
:1009900059454CD8286A8007F6D41FB1E86920F081
:1009A0008050E861E06988B36968C1F38101022978
:1009B00044D00228C6F8608004D0FFF761FD0446E9
:1009C00038E034E0FFF75CFD074604E0FFF758FD30
:1009D000C01B02282BD828688001F7D4206AB0F504
:1009E000803F05D16868A16820F400300843686042
:1009F000D4E908010843696821F474110843686068
:100A0000C6F86090FFF73CFD044606E025E000BF15
:100A1000FFF736FD001B022809D828688001F7D5AA
:100A20001BE000BFFFF72CFD001B022802D90320AA
:100A3000BDE8F88F28688001F4D40EE00128F7D0D3
:100A40006868226A00F48031914204D1616A00F43E
:100A50007010884201D00120EAE70020E8E700009A
:100A60000010024000004242800442421800002070
:100A70000070004010B5401EB0F1807F01D301200E
:100A800010BD4FF0E02460610F21601700F08AFF75
:100A90000020A06107202061002010BD7047704732
:100AA00070B590F83C20012A26D0012480F83C4003
:100AB000022280F83D2003685A689D6822F0700683
:100AC0000A6832435A600D4B02689A4208D0B2F16C
:100AD000804F05D00A4B9A4202D00A4B9A4204D169
:100AE000496825F080031943916080F83D4000215A
:100AF00080F83C10084670BD022070BD002C0140FB
:100B0000000400400008004010B5040003D094F831
:100B10003D0010B107E0012010BD002084F83C002A
:100B2000204600F01FF8022084F83D00211D2068B7
:100B300000F092FD012084F8460084F83E0084F81D
:100B40003F0084F8400084F8410084F8420084F8B3
:100B5000430084F8440084F8450084F83D000020F8
:100B600010BD000000B585B00021009101910291F7
:100B700003910068B0F1804F1ED11048C16941F067
:100B80000101C161C16901F001010491816941F074
:100B9000040181618069694600F00400049001202D
:100BA00000900748FFF776FB002211461C20FFF754
:100BB000D3FC1C20FFF7C2FC05B000BD00100240B2
:100BC0000008014070B5044690F83C00012817D099
:100BD000012584F83C50022084F83D00206882689A
:100BE00022F0770222F47F4282600868502830D0D9
:100BF0000DDC20284DD005DC98B310283BD148E00F
:100C0000022070BD302844D0402834D139E060281B
:100C100028D0702806D0B0F5805F2CD0B0F5005FEA
:100C200029D10AE0CB68D1E90121206800F057FD05
:100C30002068816841F0770109E0CB68D1E90121A2
:100C4000206800F04CFD2068816841F4804181609B
:100C500011E0CA684968206800F039FE5021206818
:100C600007E016E0CA684968206800F06DFE602160
:100C7000206800F03EFD84F83D50002084F83C00E0
:100C800070BDCA684968206800F021FE40212068D4
:100C9000EFE7226801461046EBE72DE9F0410D46EB
:100CA000040003D094F83D0018B108E00120BDE82D
:100CB000F081002084F83C00204600F041F802203A
:100CC00084F83D002068816844F207029143816006
:100CD000211D206800F0C0FC226890689169166AA6
:100CE0002B68AF69034340F20330814341EA072197
:100CF000A868EF6908434FF6FC418843E96840EA79
:100D00000720014328692F6A000140EA07300843A1
:100D100069686D6926F0220646EA05152943936045
:100D20002268906154F8460B0162012004F81F0903
:100D3000E0752076E0762077A0750020B7E7000008
:100D400000B585B0002100910191029103910068E6
:100D50000D49884216D10D48C16941F00201C161B7
:100D6000C16901F002010491816941F004018161CE
:100D70008069694600F004000490C0200090044897
:100D8000FFF788FA05B000BD0004004000100240E3
:100D90000008014070B590F83E60044690F83F505E
:100DA00090F8423090F84320022021B104290ED05F
:100DB000012E1BD114E0012E18D1012B16D184F87D
:100DC0003E0084F8420001220021206820E0012D2D
:100DD0000CD1012A0AD184F83F0084F8430014E0C2
:100DE000012D03D1012B01D1012A01D0012070BDB9
:100DF00084F83E0084F83F0084F8420084F8430001
:100E000001220021206800F05DFC012204212068FD
:100E100000F058FC2068016841F0010101600020E9
:100E200070BD70472DE9F041054690F83C000C4636
:100E3000012836D0012085F83C008AB3042A42D02C
:100E40002868082A51D0D4E90023E168066A26F40C
:100E500080560662C669076A26F4407646EA03238E
:100E60004FF6FF7606EA013123F4704319434FF43D
:100E7000005627F4005306EA02321A43C1610262A7
:100E80002868C16921F44061C1612868C169A2680C
:100E900041EA0221C161002085F83C00BDE8F081F3
:100EA00001E00220FAE7D4E90012E368286800F0C4
:100EB0001FFD2868816921F00C0181612868816922
:100EC000A26811430FE0D4E90012E368286800F03B
:100ED0004DFD2868816921F440618161286881693C
:100EE000A26841EA02218161D5E7D4E90027267B87
:100EF000016A21F480710162C169036A21F0030172
:100F0000394321F0F00731074FF4007647EA1161C9
:100F100023F4007306EA02221A43C16102622868C0
:100F2000C16921F00C01C1612868C169A26811433F
:100F3000B0E710B5040003D094F83D0010B107E00D
:100F4000012010BD002084F83C00204600F01EF86F
:100F5000022084F83D00211D206800F07DFB012067
:100F600084F8460084F83E0084F83F0084F840008E
:100F700084F8410084F8420084F8430084F8440077
:100F800084F8450084F83D00002010BD7047000043
:100F900010B5044651B104290DD0082910D094F899
:100FA000410094F84520012811D10EE094F83E004C
:100FB00094F84220F7E794F83F0094F84320F2E7D2
:100FC00094F8400094F84420EDE7012A01D0012074
:100FD00010BD022019B3042926D0082929D084F88D
:100FE000410084F845000122206800F06BFB1349A2
:100FF0002068884208D0B0F1804F05D0104988425F
:1010000002D01049884204D1816801F00701062905
:1010100003D0016841F001010160002010BD84F897
:101020003E0084F84200DEE784F83F0084F8430085
:10103000D9E784F8400084F84400D4E7002C01404C
:10104000000400400008004070B5044600680169D3
:101050004FF00005C943890715D4C168C943890702
:1010600011D4E91E01610120207720688069800782
:10107000204602D0FFF7D5FE04E000F0BFF820467E
:1010800000F062F9257720680169C943490717D440
:10109000C168C943490713D46FF0040101610220FC
:1010A00020772068806910F4407F204602D0FFF747
:1010B000B8FE04E000F0A2F8204600F045F92577DC
:1010C00020680169C943090716D4C168C9430907E3
:1010D00012D46FF008010161042020772068C069F4
:1010E0008007204602D0FFF79CFE04E000F086F85F
:1010F000204600F029F9257720680169C943C9060F
:1011000017D4C168C943C90613D46FF01001016137
:10111000082020772068C06910F4407F204602D064
:10112000FFF77FFE04E000F069F8204600F00CF9BC
:10113000257720680169C943C90708D1C168C94337
:10114000C90704D1891E0161204600F0FEF820681D
:101150000169C943090609D4C168C943090605D410
:101160006FF0800101612046FFF798FC206801695B
:10117000C943490609D4C168C943490605D46FF07B
:1011800040010161204600F00CF920680169C94363
:1011900089060BD4C168C943890607D46FF02001C2
:1011A00001612046BDE87040FFF779BC70BD0000CA
:1011B00000B585B000210091019102910391006872
:1011C0000B49884211D10B48816941F008018161C6
:1011D0008069694600F008000490402000900220D9
:1011E000019003900448FFF755F805B000BD0000DA
:1011F0000008004000100240000C0140704770B52C
:10120000044690F83C000D4601280AD0012084F8DD
:101210003C0042B1042A18D0082A2AD00C2A4DD109
:1012200039E0022070BD206800F06CFA2068816906
:1012300041F0080181612068816921F00401816128
:10124000206881692A69114311E0206800F082FA60
:101250002068816941F4006181612068816921F41D
:1012600080618161206881692A6941EA0221816186
:1012700024E0206800F09AFA2068C16941F0080172
:10128000C1612068C16921F00401C1612068C169A0
:101290002A69114311E0206800F0B4FA2068C1699E
:1012A00041F40061C1612068C16921F48061C161BC
:1012B0002068C1692A6941EA0221C161002084F8DD
:1012C0003C0070BD10B5040003D094F83D0010B18F
:1012D00007E0012010BD002084F83C00204600F00B
:1012E0001FF8022084F83D00211D206800F0B4F9A9
:1012F000012084F8460084F83E0084F83F0084F81A
:10130000400084F8410084F8420084F8430084F8E7
:10131000440084F8450084F83D00002010BD000022
:1013200008B500680649884208D10648C16941F0FD
:101330000401C161C06900F00400009008BD000014
:1013400000080040001002407047704770B5044626
:1013500090F83C00012812D0012584F83C5002206E
:1013600084F83D00204600F06FFA01004FF00000C5
:1013700007D084F83D5084F83C00012070BD022065
:1013800070BD2168CA6822F04002CA602168CA683C
:1013900022F48042CA6084F83D5084F83C0000206A
:1013A00070BD7047FEE70000F0B585B000200090EA
:1013B0000190029003901D48816941F020018161F4
:1013C000816901F020010491816941F0040181618A
:1013D000816901F004010491816941F00801816192
:1013E0008069134F00F008000490012280213846E4
:1013F000FFF740F8BE15002231463846FFF73AF8AD
:1014000001248020CDE90004022569463846CDE953
:101410000245FEF73FFF0320CDE90250CDE900640D
:1014200069463846FEF736FF05B0F0BD00100240B1
:10143000000C014030B58FB0002409940A940B943D
:10144000142104A80C94FEF7BFFE2B480D940E94B3
:101450000094019402944FF0804101250394C0E967
:1014600000154FF6FF71C0E9024104618461FFF786
:101470004BFB08B172B6FEE74FF48050099009A902
:101480001D48FFF79FFB08B172B6FEE71A48FFF749
:1014900050FD08B172B6FEE7042004905020CDE95B
:1014A000050404A914480894FFF750FF08B172B668
:1014B000FEE70D940DA910480E94FFF7F1FA08B15C
:1014C00072B6FEE7CDE900450294002269460A485B
:1014D0000394FFF7A7FC08B172B6FEE70220009064
:1014E0000190042269460448FFF79CFC002801D0C3
:1014F00072B6FEE70FB030BD1C00002010B58CB0F6
:1015000024216846FEF760FE002416480994144919
:101510000A94C0E900144FF6FF71C0E9024104616A
:1015200084610320CDE900040120CDE902040621F5
:101530000491CDE90540CDE9074169460948FFF727
:10154000ACFB08B172B6FEE7099409A905480A94F4
:10155000FFF7A6FA002801D072B6FEE70CB010BD66
:10156000000400406400002010B58AB000240794F5
:101570001C2168460894FEF727FE184816490160AA
:101580004721C0E9011442F21071C0E903148461DB
:10159000FFF798FE08B172B6FEE7079407A90F4857
:1015A0000894FFF77DFA08B172B6FEE7602000905C
:1015B00040F6C410CDE901040420049000226946DD
:1015C0000648FFF71CFE08B172B6FEE70348FFF7B6
:1015D000EFFD0AB010BD000000080040AC00002084
:1015E000FEE7FEE770477047FEF750BF30B58FB09B
:1015F00028216846FEF7E8FD14210AA8FEF7E4FD5D
:1016000001210804CDE90010002402940225049170
:10161000CDE907504FF4E01009906846FFF79AF8BB
:1016200008B172B6FEE70F20CDE90A054FF48060DD
:10163000CDE90C4002210AA80E94FEF7BFFF002856
:1016400001D072B6FEE70FB030BD70470148FFF71A
:10165000FBBC00001C000020F0B50268164B174CC4
:10166000174D4FF08047984205D0B84203D0A042B2
:1016700001D0A84203D122F070064A683243984252
:1016800005D0B84203D0A04201D0A84203D122F431
:101690004074CA6822434C6922F0800222430260EF
:1016A0008A68C2620A688262984201D1096901634C
:1016B00001214161F0BD0000002C01400004004008
:1016C0000008004010B501F01F030121046A994091
:1016D0008C430462016A9A401143016210BD10B547
:1016E000846842EA032224F47F440A43224382604E
:1016F00010BD826822F070020A4342F00701816047
:101700007047000030B5026A22F001020262026AEC
:101710004368846924F073050C682C4322F00205A9
:101720008A682A430A4DA8420BD122F00805CA68EC
:1017300023F440732A434D6922F004021D438B6950
:101740002B434360846149684163026230BD0000FD
:10175000002C014030B5026A22F010020262026AD7
:10176000436884690D6824F4E64444EA05248D68DE
:1017700022F0200242EA05120B4DA8420ED1CD689C
:1017800022F0800242EA05124D6923F4406343EAE5
:1017900085038D6922F0400243EA8503436084613A
:1017A00049688163026230BD002C014030B5026A95
:1017B00022F480720262036A4268C46923F40073EF
:1017C00024F073050C682C438D6843EA05230C4D07
:1017D000A8420ED1CD6823F4006343EA05234D6986
:1017E00022F4405242EA05128D6923F4806342EAF2
:1017F00005124260C4614968C163036230BD0000E4
:10180000002C014030B5026A22F480520262046A60
:101810004268C3690D6823F4E64343EA05238D68F3
:1018200024F4005444EA0534064DA84204D14D691D
:1018300022F4804242EA85124260C3614968016431
:10184000046230BD002C014010B503689A6822F094
:1018500070044A68224322F007040A6822439A600F
:101860004A6812F00F0F30D11211082A2DD2DFE88A
:1018700002F02C2C2C2C0B2127040B69D1E902211E
:101880000068FFF72CFF20E00A68052A10D00268E4
:10189000136A146A24F001041462026894690969E5
:1018A00024F0F00444EA01119161006803620CE045
:1018B000012010BD0A698968006800F008F804E09A
:1018C0000A698968006800F03FF8002010BD10B573
:1018D000036A046A24F001040462846924F0F004B9
:1018E00044EA021423F00A020A438461026210BD32
:1018F00070B5046A24F0010404628469056A0F4E1D
:10190000B04208D0B0F1804F05D00D4EB04202D0A9
:101910000C4EB04203D124F00304144301E044F020
:1019200001041A0724F0F00444EA126225F00A03C5
:1019300001F00A0119438261016270BD002C01406F
:10194000000400400008004010B5036A23F01003B3
:1019500003628369046A23F4704343EA023224F089
:10196000A00343EA01118261016210BD30B5046A2F
:1019700024F0100404628469056A24F4407444EA83
:10198000022222F470444FF6FF7202EA033222432D
:10199000A02425F0A00304EA011119438261016229
:1019A00030BDFEE70907090E002804DB00F1E02046
:1019B00080F80014704700F00F0000F1E02080F87C
:1019C000141D7047FEF76AFDFFF710FEFFF7ECFCF1
:1019D000FFF730FDFFF792FDFFF7C6FD3C212348DE
:1019E000FFF7D8F9214800214838FFF7D1FA1F48FE
:1019F00004214838FFF7CCFA1C4800214830FFF793
:101A0000C7FA1A4819494838194E0F680568686BB3
:101A10000404240C26D0204600F0B8F980468946FC
:101A2000A86B00F0B3F90022124B00F0C3F9424654
:101A30004B4600F053F800F01FF80D49091F0860ED
:101A4000A86B4FF4E1514843B0FBF4F080B214218D
:101A5000B0FBF1F131804FF4B471B0FBF1F201FB56
:101A600012007080786AB080D1E700006400002026
:101A7000040000200000594021F00042A2F1605211
:101A8000B2F5801F01F0004328BFD2F17F6C0BD963
:101A90005FEA001C43EAC20242EB507018BF704775
:101AA00028BF20F001007047B2F5801FBCBF184668
:101AB00070474FEA410C1CF5001F02D2084600F0A7
:101AC00077BA70B500F020FA00000089FFF7F6BF82
:101AD0004FF00040A0F58000704700002DE9C041A4
:101AE00030B4DFF8A0C23CEA111418BF3CEA13146A
:101AF00000F0EC8081EA03051CEA111444EAD57475
:101B000018BF1CEA131500F0C780A4EB05044FF0C2
:101B1000004545EAC12145EAC32341EA505143EA61
:101B2000525304F17F74994204F500344FEAC02007
:101B30004FEAC22208BF904200F09C804FEA136532
:101B40000FF24016765D4FEA134506FB05F7C7F125
:101B5000807706FB07F74FEAD737A7FB0368764283
:101B6000C8F58038A7FB06CE38BFA8F1010807FBEF
:101B700008E64FF0000EA6FB028CE6FB03CEDCF17C
:101B8000000CCEF1004E38BFAEF1010EA6FB0C5892
:101B90004FF000074FF00005E6FB0E87A1FB08C6DB
:101BA000A0FB07CE16EB0E0645F10005E1FB07652D
:101BB00015F1E04E7EBFA4F580345FEA46066D4124
:101BC00016F1800745F100054FEA17274FEA066630
:101BD00047EA0567A6F1DE46B6F1805F4FEA1525B4
:101BE0001FD9384624F0010C05EBC471BCF1FE6F1F
:101BF00001EB0C1102D8F0BCBDE8008124425CBFAF
:101C000001F5801E9EEAC47F02D4F0BCBDE80081CD
:101C1000244238D4F0BCA1F1C041BDE8004100F03D
:101C2000C1B94FEAD22242EA43524FEAD323A7FB7B
:101C300002864FEAD02040EA415007FB03661EEAC5
:101C40000E0F4FEAD12105FB026658BFA6EB0056E6
:101C5000B6EB00564FEA520E4EEAC37E18EB0E0E5C
:101C600056EB530EBDD518EB02085E417F1C55F1B3
:101C70000005B6E74FF480154FF000074FF000065F
:101C80004FF00008ADE7F0BC4FF0000001F1C0419B
:101C900001F00041BDE8008111EA0C1F0CEA1315A8
:101CA00000D00CE013EA0C1F00F025804FF000007C
:101CB000F0BC81EA030101F00041BDE80081F0BC05
:101CC000BDE8004181EA030100F06CB9F0BCBDE859
:101CD000004170B500F018F9097EFC3E00F007B82D
:101CE00081EA03014FF0000001F00041704781EAF2
:101CF000030100F057B9F0BCBDE800414FF000000F
:101D000021497047FFFDFBF9F7F5F4F2F0EEEDEB3A
:101D1000E9E8E6E4E3E1E0DEDDDBDAD8D7D5D4D3E9
:101D2000D1D0CFCDCCCBCAC8C7C6C5C4C2C1C0BF35
:101D3000BEBDBCBBBAB9B8B7B6B5B4B3B2B1B0AF3B
:101D4000AEADACABAAA9A8A8A7A6A5A4A3A3A2A11F
:101D5000A09F9F9E9D9C9C9B9A99999897979695DA
:101D600095949393929191908F8F8E8E8D8C8C8B76
:101D70008B8A8989888887878685858484838382FE
:101D8000828181800000FF070000F87FB0FA80F3B5
:101D900010FA03F10AD0C3F11D0303F580634FEA83
:101DA00041504FEA035202EBD12170474FF000003F
:101DB00070470000DFF848C170B51CEA111E1EBF55
:101DC0001CEA13159EEA0C0F95EA0C0F00F06F80C9
:101DD00081EA030423EA4C134EEAD47E21EA4C1133
:101DE00041F4801143F48013AE44A1FB024CA0FBEC
:101DF0000365AEF17F7E361955EB0C05A1FB034C54
:101E00004CF10003A0FB021C16EB0C06654153F1DC
:101E10000003094218BF46F0010613F4007F0BD1FE
:101E20004FEA03314FEA0530340341EA155140EAE5
:101E300016506FF003020AE04FEAC3214FEAC520B3
:101E4000F40241EA555140EA56506FF0020202EBAB
:101E50002E4201EB025585EACE710AD05FEA440CAE
:101E600018BF24F0004450F1000041F1000120EAC5
:101E7000D47040F2FE7C624500D270BDA84214BF0F
:101E80004FF080444FF04044002E08BF0024BEF1C4
:101E9000806FA8BFA1F1C041BDE8704080F2828090
:101EA0004FF0000001F1C04101F0004170479EEA8F
:101EB0000C0F0CEA131518BF95EA0C0F06D04FF063
:101EC000000081EA030E0EF0004170BD00F01CF826
:101ED0008900013E00F007B800F009B84FEA430C52
:101EE0005FEA5C5C08D081EA030100F05BB84FEA6E
:101EF000410C5FEA5C5CF6D14FF00000014970478D
:101F00000000FF070000F87F0EF1020E2EF0030E16
:101F10005EF8046B364205D4012A43EB030515F540
:101F2000001F12D8012841EB010C1CF5001F0CD832
:101F30000ED14FEAD17C15F5001F0CEB4C0C0CF1C7
:101F4000020C08BF4CEBD37C04E04FF0080C01E01E
:101F50004FEAD37C0CEB4C0526FA05F606F0070693
:101F6000B6F1040C06D20EEB860CBDE870404CF0C6
:101F7000010C6047DFE80CF0090B02024FF0004152
:101F80004FF00000A1F5002170BD19461046012850
:101F900051EB010418BFD4F5001484BF002001F0F8
:101FA000004170BD0808A0F500114FEA31017047EB
:101FB000FF2141EAD050C00570470000000000003A
:101FC000000001020304060708090000EC1F0008D6
:101FD000000000201C000000280100080820000864
:101FE0001C0000203C070000440100080000000025
:101FF00000000000000000000100000010000000D0
:08200000000000000024F400C0
:04000005080000ED02
:00000001FF
